{
  "contractName": "ERC721",
  "abi": [
    {
      "inputs": [],
      "stateMutability": "nonpayable",
      "type": "constructor"
    },
    {
      "anonymous": false,
      "inputs": [
        {
          "indexed": true,
          "internalType": "address",
          "name": "_from",
          "type": "address"
        },
        {
          "indexed": true,
          "internalType": "address",
          "name": "_to",
          "type": "address"
        },
        {
          "indexed": true,
          "internalType": "uint256",
          "name": "_tokenId",
          "type": "uint256"
        }
      ],
      "name": "Transfer",
      "type": "event"
    },
    {
      "inputs": [
        {
          "internalType": "bytes4",
          "name": "interfaceID",
          "type": "bytes4"
        }
      ],
      "name": "supportsInterface",
      "outputs": [
        {
          "internalType": "bool",
          "name": "",
          "type": "bool"
        }
      ],
      "stateMutability": "view",
      "type": "function"
    },
    {
      "inputs": [
        {
          "internalType": "address",
          "name": "_owner",
          "type": "address"
        }
      ],
      "name": "balanceOf",
      "outputs": [
        {
          "internalType": "uint256",
          "name": "",
          "type": "uint256"
        }
      ],
      "stateMutability": "view",
      "type": "function"
    },
    {
      "inputs": [
        {
          "internalType": "uint256",
          "name": "_tokenId",
          "type": "uint256"
        }
      ],
      "name": "ownerOf",
      "outputs": [
        {
          "internalType": "address",
          "name": "",
          "type": "address"
        }
      ],
      "stateMutability": "view",
      "type": "function"
    },
    {
      "inputs": [
        {
          "internalType": "address",
          "name": "_from",
          "type": "address"
        },
        {
          "internalType": "address",
          "name": "_to",
          "type": "address"
        },
        {
          "internalType": "uint256",
          "name": "_tokenId",
          "type": "uint256"
        }
      ],
      "name": "transferFrom",
      "outputs": [],
      "stateMutability": "nonpayable",
      "type": "function"
    }
  ],
  "bytecode": "0x608060405234801561001057600080fd5b506100407f01ffc9a7a5cef8baa21ed3c5c0d7e23accb804b619e9333b597f47a0d84076e26100b860201b60201c565b6100b37f22c82707ba960a14c7592ffb6b8cfaa073fed0048a84cc7fa41f6b5bd8e7f2e47f3a6eb71757dfc6e784c1459d26270140c2c147d95ca985c80026fc5301c3eca17f8a7e378434598edc36d108689a030cbc9d7d465de4f74c71bae1028eed6a881b18186100b860201b60201c565b610209565b63ffffffff60e01b817bffffffffffffffffffffffffffffffffffffffffffffffffffffffff191603610120576040517f08c379a0000000000000000000000000000000000000000000000000000000008152600401610117906101e9565b60405180910390fd5b6001600080837bffffffffffffffffffffffffffffffffffffffffffffffffffffffff19167bffffffffffffffffffffffffffffffffffffffffffffffffffffffff1916815260200190815260200160002060006101000a81548160ff02191690831515021790555050565b600082825260208201905092915050565b7f496e76616c696420696e74657266616365207265717565737400000000000000600082015250565b60006101d360198361018c565b91506101de8261019d565b602082019050919050565b60006020820190508181036000830152610202816101c6565b9050919050565b610b8a806102186000396000f3fe608060405234801561001057600080fd5b506004361061004c5760003560e01c806301ffc9a71461005157806323b872dd146100815780636352211e1461009d57806370a08231146100cd575b600080fd5b61006b60048036038101906100669190610692565b6100fd565b60405161007891906106da565b60405180910390f35b61009b60048036038101906100969190610789565b610164565b005b6100b760048036038101906100b291906107dc565b610187565b6040516100c49190610818565b60405180910390f35b6100e760048036038101906100e29190610833565b610238565b6040516100f4919061086f565b60405180910390f35b6000806000837bffffffffffffffffffffffffffffffffffffffffffffffffffffffff19167bffffffffffffffffffffffffffffffffffffffffffffffffffffffff1916815260200190815260200160002060009054906101000a900460ff169050919050565b61016e33826102ef565b61017757600080fd5b61018283838361037e565b505050565b6000806001600084815260200190815260200160002060009054906101000a900473ffffffffffffffffffffffffffffffffffffffff169050600073ffffffffffffffffffffffffffffffffffffffff168173ffffffffffffffffffffffffffffffffffffffff160361022f576040517f08c379a00000000000000000000000000000000000000000000000000000000081526004016102269061090d565b60405180910390fd5b80915050919050565b60008073ffffffffffffffffffffffffffffffffffffffff168273ffffffffffffffffffffffffffffffffffffffff16036102a8576040517f08c379a000000000000000000000000000000000000000000000000000000000815260040161029f9061090d565b60405180910390fd5b600260008373ffffffffffffffffffffffffffffffffffffffff1673ffffffffffffffffffffffffffffffffffffffff168152602001908152602001600020549050919050565b60006102fa826105c3565b610339576040517f08c379a000000000000000000000000000000000000000000000000000000000815260040161033090610979565b60405180910390fd5b600061034483610187565b90508073ffffffffffffffffffffffffffffffffffffffff168473ffffffffffffffffffffffffffffffffffffffff161491505092915050565b600073ffffffffffffffffffffffffffffffffffffffff168273ffffffffffffffffffffffffffffffffffffffff16036103ed576040517f08c379a00000000000000000000000000000000000000000000000000000000081526004016103e490610a0b565b60405180910390fd5b8273ffffffffffffffffffffffffffffffffffffffff1661040d82610187565b73ffffffffffffffffffffffffffffffffffffffff1614610463576040517f08c379a000000000000000000000000000000000000000000000000000000000815260040161045a90610a9d565b60405180910390fd5b6001600260008573ffffffffffffffffffffffffffffffffffffffff1673ffffffffffffffffffffffffffffffffffffffff16815260200190815260200160002060008282546104b39190610aec565b925050819055506001600260008473ffffffffffffffffffffffffffffffffffffffff1673ffffffffffffffffffffffffffffffffffffffff168152602001908152602001600020600082825461050a9190610b20565b92505081905550816001600083815260200190815260200160002060006101000a81548173ffffffffffffffffffffffffffffffffffffffff021916908373ffffffffffffffffffffffffffffffffffffffff160217905550808273ffffffffffffffffffffffffffffffffffffffff168473ffffffffffffffffffffffffffffffffffffffff167fddf252ad1be2c89b69c2b068fc378daa952ba7f163c4a11628f55a4df523b3ef60405160405180910390a4505050565b6000806001600084815260200190815260200160002060009054906101000a900473ffffffffffffffffffffffffffffffffffffffff169050600073ffffffffffffffffffffffffffffffffffffffff168173ffffffffffffffffffffffffffffffffffffffff161415915050919050565b600080fd5b60007fffffffff0000000000000000000000000000000000000000000000000000000082169050919050565b61066f8161063a565b811461067a57600080fd5b50565b60008135905061068c81610666565b92915050565b6000602082840312156106a8576106a7610635565b5b60006106b68482850161067d565b91505092915050565b60008115159050919050565b6106d4816106bf565b82525050565b60006020820190506106ef60008301846106cb565b92915050565b600073ffffffffffffffffffffffffffffffffffffffff82169050919050565b6000610720826106f5565b9050919050565b61073081610715565b811461073b57600080fd5b50565b60008135905061074d81610727565b92915050565b6000819050919050565b61076681610753565b811461077157600080fd5b50565b6000813590506107838161075d565b92915050565b6000806000606084860312156107a2576107a1610635565b5b60006107b08682870161073e565b93505060206107c18682870161073e565b92505060406107d286828701610774565b9150509250925092565b6000602082840312156107f2576107f1610635565b5b600061080084828501610774565b91505092915050565b61081281610715565b82525050565b600060208201905061082d6000830184610809565b92915050565b60006020828403121561084957610848610635565b5b60006108578482850161073e565b91505092915050565b61086981610753565b82525050565b60006020820190506108846000830184610860565b92915050565b600082825260208201905092915050565b7f6f776e657220717565727920666f72206e6f6e2d6578697374656e7420746f6b60008201527f656e000000000000000000000000000000000000000000000000000000000000602082015250565b60006108f760228361088a565b91506109028261089b565b604082019050919050565b60006020820190508181036000830152610926816108ea565b9050919050565b7f746f6b656e20646f6573206e6f74206578697374000000000000000000000000600082015250565b600061096360148361088a565b915061096e8261092d565b602082019050919050565b6000602082019050818103600083015261099281610956565b9050919050565b7f4572726f72202d20455243373231205472616e7366657220746f20746865207a60008201527f65726f2061646472657373000000000000000000000000000000000000000000602082015250565b60006109f5602b8361088a565b9150610a0082610999565b604082019050919050565b60006020820190508181036000830152610a24816109e8565b9050919050565b7f547279696e6720746f207472616e73666572206120746f6b656e20746865206160008201527f64647265737320646f6573206e6f74206f776e21000000000000000000000000602082015250565b6000610a8760348361088a565b9150610a9282610a2b565b604082019050919050565b60006020820190508181036000830152610ab681610a7a565b9050919050565b7f4e487b7100000000000000000000000000000000000000000000000000000000600052601160045260246000fd5b6000610af782610753565b9150610b0283610753565b9250828203905081811115610b1a57610b19610abd565b5b92915050565b6000610b2b82610753565b9150610b3683610753565b9250828201905080821115610b4e57610b4d610abd565b5b9291505056fea26469706673582212209cc8f9f0298f4a9490b8bec67584e89db975680f9c7de1e8d99442f4cf77bd3e64736f6c63430008100033",
  "immutableReferences": {},
  "source": "// SPDX-License-Identifier: MIT\npragma solidity ^0.8.0;\n\nimport './ERC165.sol';\nimport './interfaces/IERC721.sol';\ncontract ERC721 is ERC165, IERC721 {\n   \n    mapping(uint256 => address) private _tokenOwner;  // Owner of token\n\n    mapping(address =>  uint256) private _OwnedTokensCount; // Storing count of owned tokens\n\n    constructor() {\n        _registerInterface(bytes4(keccak256('balanceOf(bytes4)')^\n        keccak256('ownerOf(bytes4)')^keccak256('transferFrom(bytes4)')));\n    }\n\n    function balanceOf(address _owner) public override view returns(uint256) {\n        require(_owner != address(0), 'owner query for non-existent token');\n        return _OwnedTokensCount[_owner];\n    }\n\n    function ownerOf(uint256 _tokenId) public view override returns (address) {\n        address owner = _tokenOwner[_tokenId];\n        require(owner != address(0), 'owner query for non-existent token');\n        return owner;\n    }\n\n\n    function _exists(uint256 tokenId) internal view returns(bool){\n        address owner = _tokenOwner[tokenId];\n        return owner != address(0);\n    }\n\n    function _mint(address to, uint256 tokenId) internal virtual {\n        require(to != address(0), 'ERC721: minting to the zero addres');\n        require(!_exists(tokenId), 'ERC721: token already minted');\n        _tokenOwner[tokenId] = to; \n        _OwnedTokensCount[to]+=1;  \n\n        emit Transfer(address(0), to, tokenId);\n    }\n\n    function _transferFrom(address _from, address _to, uint256 _tokenId) internal {\n        require(_to != address(0), 'Error - ERC721 Transfer to the zero address');\n        require(ownerOf(_tokenId) == _from, 'Trying to transfer a token the address does not own!');\n\n        _OwnedTokensCount[_from]-=1;\n        _OwnedTokensCount[_to]+=1;\n\n        _tokenOwner[_tokenId] = _to;\n\n        emit Transfer(_from, _to, _tokenId);\n    }\n\n    function transferFrom(address _from, address _to, uint256 _tokenId) override public {\n        require(isApprovedOrOwner(msg.sender, _tokenId));\n        _transferFrom(_from, _to, _tokenId);\n\n    }\n\n    function isApprovedOrOwner(address spender, uint256 tokenId) internal view returns(bool) {\n        require(_exists(tokenId), 'token does not exist');\n        address owner = ownerOf(tokenId);\n        return(spender == owner); \n    }\n\n}\n\n",
  "sourcePath": "D:\\NFT\\Final\\NFT-MINTER\\src\\contracts\\ERC721.sol",
  "compiler": {
    "name": "solc",
    "version": "0.8.16+commit.07a7930e.Emscripten.clang"
  },
  "schemaVersion": "3.4.9",
  "updatedAt": "2022-08-31T16:05:12.872Z",
  "devdoc": {
    "kind": "dev",
    "methods": {},
    "version": 1
  },
  "userdoc": {
    "kind": "user",
    "methods": {},
    "version": 1
  }
}