{
  "contractName": "ERC721Enumerable",
  "abi": [
    {
      "inputs": [],
      "stateMutability": "nonpayable",
      "type": "constructor"
    },
    {
      "anonymous": false,
      "inputs": [
        {
          "indexed": true,
          "internalType": "address",
          "name": "_from",
          "type": "address"
        },
        {
          "indexed": true,
          "internalType": "address",
          "name": "_to",
          "type": "address"
        },
        {
          "indexed": true,
          "internalType": "uint256",
          "name": "_tokenId",
          "type": "uint256"
        }
      ],
      "name": "Transfer",
      "type": "event"
    },
    {
      "inputs": [
        {
          "internalType": "address",
          "name": "_owner",
          "type": "address"
        }
      ],
      "name": "balanceOf",
      "outputs": [
        {
          "internalType": "uint256",
          "name": "",
          "type": "uint256"
        }
      ],
      "stateMutability": "view",
      "type": "function"
    },
    {
      "inputs": [
        {
          "internalType": "uint256",
          "name": "_tokenId",
          "type": "uint256"
        }
      ],
      "name": "ownerOf",
      "outputs": [
        {
          "internalType": "address",
          "name": "",
          "type": "address"
        }
      ],
      "stateMutability": "view",
      "type": "function"
    },
    {
      "inputs": [
        {
          "internalType": "bytes4",
          "name": "interfaceID",
          "type": "bytes4"
        }
      ],
      "name": "supportsInterface",
      "outputs": [
        {
          "internalType": "bool",
          "name": "",
          "type": "bool"
        }
      ],
      "stateMutability": "view",
      "type": "function"
    },
    {
      "inputs": [
        {
          "internalType": "address",
          "name": "_from",
          "type": "address"
        },
        {
          "internalType": "address",
          "name": "_to",
          "type": "address"
        },
        {
          "internalType": "uint256",
          "name": "_tokenId",
          "type": "uint256"
        }
      ],
      "name": "transferFrom",
      "outputs": [],
      "stateMutability": "nonpayable",
      "type": "function"
    },
    {
      "inputs": [
        {
          "internalType": "uint256",
          "name": "index",
          "type": "uint256"
        }
      ],
      "name": "tokenByIndex",
      "outputs": [
        {
          "internalType": "uint256",
          "name": "",
          "type": "uint256"
        }
      ],
      "stateMutability": "view",
      "type": "function"
    },
    {
      "inputs": [
        {
          "internalType": "address",
          "name": "owner",
          "type": "address"
        },
        {
          "internalType": "uint256",
          "name": "index",
          "type": "uint256"
        }
      ],
      "name": "tokenOfOwnerByIndex",
      "outputs": [
        {
          "internalType": "uint256",
          "name": "",
          "type": "uint256"
        }
      ],
      "stateMutability": "view",
      "type": "function"
    },
    {
      "inputs": [],
      "name": "totalSupply",
      "outputs": [
        {
          "internalType": "uint256",
          "name": "",
          "type": "uint256"
        }
      ],
      "stateMutability": "view",
      "type": "function"
    }
  ],
  "bytecode": "0x60806040523480156200001157600080fd5b50620000437f01ffc9a7a5cef8baa21ed3c5c0d7e23accb804b619e9333b597f47a0d84076e26200013360201b60201c565b620000b87f22c82707ba960a14c7592ffb6b8cfaa073fed0048a84cc7fa41f6b5bd8e7f2e47f3a6eb71757dfc6e784c1459d26270140c2c147d95ca985c80026fc5301c3eca17f8a7e378434598edc36d108689a030cbc9d7d465de4f74c71bae1028eed6a881b18186200013360201b60201c565b6200012d7f8230223f691b981717299fae9549350a0d894555723531f02108b1f522c1a7977f6da5e1284143cdd2d15038a59bde3be031250f00291d64494c12d967b3a4e0c37fc53637662700e6c65104059db8bba34439e0c32483ab7c34e3ccae52c739549518186200013360201b60201c565b6200028d565b63ffffffff60e01b817bffffffffffffffffffffffffffffffffffffffffffffffffffffffff1916036200019e576040517f08c379a000000000000000000000000000000000000000000000000000000000815260040162000195906200026b565b60405180910390fd5b6001600080837bffffffffffffffffffffffffffffffffffffffffffffffffffffffff19167bffffffffffffffffffffffffffffffffffffffffffffffffffffffff1916815260200190815260200160002060006101000a81548160ff02191690831515021790555050565b600082825260208201905092915050565b7f496e76616c696420696e74657266616365207265717565737400000000000000600082015250565b6000620002536019836200020a565b915062000260826200021b565b602082019050919050565b60006020820190508181036000830152620002868162000244565b9050919050565b610eae806200029d6000396000f3fe608060405234801561001057600080fd5b506004361061007d5760003560e01c80632f745c591161005b5780632f745c59146100ec5780634f6ccce71461011c5780636352211e1461014c57806370a082311461017c5761007d565b806301ffc9a71461008257806318160ddd146100b257806323b872dd146100d0575b600080fd5b61009c6004803603810190610097919061086f565b6101ac565b6040516100a991906108b7565b60405180910390f35b6100ba610213565b6040516100c791906108eb565b60405180910390f35b6100ea60048036038101906100e59190610990565b610220565b005b610106600480360381019061010191906109e3565b610243565b60405161011391906108eb565b60405180910390f35b61013660048036038101906101319190610a23565b6102f3565b60405161014391906108eb565b60405180910390f35b61016660048036038101906101619190610a23565b610364565b6040516101739190610a5f565b60405180910390f35b61019660048036038101906101919190610a7a565b610415565b6040516101a391906108eb565b60405180910390f35b6000806000837bffffffffffffffffffffffffffffffffffffffffffffffffffffffff19167bffffffffffffffffffffffffffffffffffffffffffffffffffffffff1916815260200190815260200160002060009054906101000a900460ff169050919050565b6000600380549050905090565b61022a33826104cc565b61023357600080fd5b61023e83838361055b565b505050565b600061024e83610415565b821061028f576040517f08c379a000000000000000000000000000000000000000000000000000000000815260040161028690610b04565b60405180910390fd5b600560008473ffffffffffffffffffffffffffffffffffffffff1673ffffffffffffffffffffffffffffffffffffffff16815260200190815260200160002082815481106102e0576102df610b24565b5b9060005260206000200154905092915050565b60006102fd610213565b821061033e576040517f08c379a000000000000000000000000000000000000000000000000000000000815260040161033590610b9f565b60405180910390fd5b6003828154811061035257610351610b24565b5b90600052602060002001549050919050565b6000806001600084815260200190815260200160002060009054906101000a900473ffffffffffffffffffffffffffffffffffffffff169050600073ffffffffffffffffffffffffffffffffffffffff168173ffffffffffffffffffffffffffffffffffffffff160361040c576040517f08c379a000000000000000000000000000000000000000000000000000000000815260040161040390610c31565b60405180910390fd5b80915050919050565b60008073ffffffffffffffffffffffffffffffffffffffff168273ffffffffffffffffffffffffffffffffffffffff1603610485576040517f08c379a000000000000000000000000000000000000000000000000000000000815260040161047c90610c31565b60405180910390fd5b600260008373ffffffffffffffffffffffffffffffffffffffff1673ffffffffffffffffffffffffffffffffffffffff168152602001908152602001600020549050919050565b60006104d7826107a0565b610516576040517f08c379a000000000000000000000000000000000000000000000000000000000815260040161050d90610c9d565b60405180910390fd5b600061052183610364565b90508073ffffffffffffffffffffffffffffffffffffffff168473ffffffffffffffffffffffffffffffffffffffff161491505092915050565b600073ffffffffffffffffffffffffffffffffffffffff168273ffffffffffffffffffffffffffffffffffffffff16036105ca576040517f08c379a00000000000000000000000000000000000000000000000000000000081526004016105c190610d2f565b60405180910390fd5b8273ffffffffffffffffffffffffffffffffffffffff166105ea82610364565b73ffffffffffffffffffffffffffffffffffffffff1614610640576040517f08c379a000000000000000000000000000000000000000000000000000000000815260040161063790610dc1565b60405180910390fd5b6001600260008573ffffffffffffffffffffffffffffffffffffffff1673ffffffffffffffffffffffffffffffffffffffff16815260200190815260200160002060008282546106909190610e10565b925050819055506001600260008473ffffffffffffffffffffffffffffffffffffffff1673ffffffffffffffffffffffffffffffffffffffff16815260200190815260200160002060008282546106e79190610e44565b92505081905550816001600083815260200190815260200160002060006101000a81548173ffffffffffffffffffffffffffffffffffffffff021916908373ffffffffffffffffffffffffffffffffffffffff160217905550808273ffffffffffffffffffffffffffffffffffffffff168473ffffffffffffffffffffffffffffffffffffffff167fddf252ad1be2c89b69c2b068fc378daa952ba7f163c4a11628f55a4df523b3ef60405160405180910390a4505050565b6000806001600084815260200190815260200160002060009054906101000a900473ffffffffffffffffffffffffffffffffffffffff169050600073ffffffffffffffffffffffffffffffffffffffff168173ffffffffffffffffffffffffffffffffffffffff161415915050919050565b600080fd5b60007fffffffff0000000000000000000000000000000000000000000000000000000082169050919050565b61084c81610817565b811461085757600080fd5b50565b60008135905061086981610843565b92915050565b60006020828403121561088557610884610812565b5b60006108938482850161085a565b91505092915050565b60008115159050919050565b6108b18161089c565b82525050565b60006020820190506108cc60008301846108a8565b92915050565b6000819050919050565b6108e5816108d2565b82525050565b600060208201905061090060008301846108dc565b92915050565b600073ffffffffffffffffffffffffffffffffffffffff82169050919050565b600061093182610906565b9050919050565b61094181610926565b811461094c57600080fd5b50565b60008135905061095e81610938565b92915050565b61096d816108d2565b811461097857600080fd5b50565b60008135905061098a81610964565b92915050565b6000806000606084860312156109a9576109a8610812565b5b60006109b78682870161094f565b93505060206109c88682870161094f565b92505060406109d98682870161097b565b9150509250925092565b600080604083850312156109fa576109f9610812565b5b6000610a088582860161094f565b9250506020610a198582860161097b565b9150509250929050565b600060208284031215610a3957610a38610812565b5b6000610a478482850161097b565b91505092915050565b610a5981610926565b82525050565b6000602082019050610a746000830184610a50565b92915050565b600060208284031215610a9057610a8f610812565b5b6000610a9e8482850161094f565b91505092915050565b600082825260208201905092915050565b7f6f776e657220696e646578206973206f7574206f6620626f756e647321000000600082015250565b6000610aee601d83610aa7565b9150610af982610ab8565b602082019050919050565b60006020820190508181036000830152610b1d81610ae1565b9050919050565b7f4e487b7100000000000000000000000000000000000000000000000000000000600052603260045260246000fd5b7f676c6f62616c20696e646578206973206f7574206f6620626f756e6473210000600082015250565b6000610b89601e83610aa7565b9150610b9482610b53565b602082019050919050565b60006020820190508181036000830152610bb881610b7c565b9050919050565b7f6f776e657220717565727920666f72206e6f6e2d6578697374656e7420746f6b60008201527f656e000000000000000000000000000000000000000000000000000000000000602082015250565b6000610c1b602283610aa7565b9150610c2682610bbf565b604082019050919050565b60006020820190508181036000830152610c4a81610c0e565b9050919050565b7f746f6b656e20646f6573206e6f74206578697374000000000000000000000000600082015250565b6000610c87601483610aa7565b9150610c9282610c51565b602082019050919050565b60006020820190508181036000830152610cb681610c7a565b9050919050565b7f4572726f72202d20455243373231205472616e7366657220746f20746865207a60008201527f65726f2061646472657373000000000000000000000000000000000000000000602082015250565b6000610d19602b83610aa7565b9150610d2482610cbd565b604082019050919050565b60006020820190508181036000830152610d4881610d0c565b9050919050565b7f547279696e6720746f207472616e73666572206120746f6b656e20746865206160008201527f64647265737320646f6573206e6f74206f776e21000000000000000000000000602082015250565b6000610dab603483610aa7565b9150610db682610d4f565b604082019050919050565b60006020820190508181036000830152610dda81610d9e565b9050919050565b7f4e487b7100000000000000000000000000000000000000000000000000000000600052601160045260246000fd5b6000610e1b826108d2565b9150610e26836108d2565b9250828203905081811115610e3e57610e3d610de1565b5b92915050565b6000610e4f826108d2565b9150610e5a836108d2565b9250828201905080821115610e7257610e71610de1565b5b9291505056fea2646970667358221220be5d2ac93c50e68b58c2462ab5ff3c00d2d4936f5dc64dd3367199a6d9ac931f64736f6c63430008100033",
  "immutableReferences": {},
  "source": "// SPDX-License-Identifier: MIT\npragma solidity ^0.8.0;\n\nimport './ERC721.sol';\nimport './interfaces/IERC721Enumerable.sol';\n\ncontract ERC721Enumerable is IERC721Enumerable, ERC721 {\n\n    uint256[] private _allTokens;\n\n    mapping(uint256 => uint256) private _allTokensIndex; // mapping from tokenId to position in _allTokens array\n\n    mapping(address => uint256[]) private _ownedTokens; // mapping of owner to list of all owner token ids\n\n    mapping(uint256 => uint256) private _ownedTokensIndex; // mapping from token ID to index of the owner tokens list \n\n    \n    constructor() {\n        _registerInterface(bytes4(keccak256('totalSupply(bytes4)')^\n        keccak256('tokenByIndex(bytes4)')^keccak256('tokenOfOwnerByIndex(bytes4)')));\n    }\n\n    function _mint(address to, uint256 tokenId) internal override(ERC721) {\n        super._mint(to, tokenId);\n        _addTokensToAllTokenEnumeration(tokenId); \n        _addTokensToOwnerEnumeration(to, tokenId);\n    }\n\n    function _addTokensToAllTokenEnumeration(uint256 tokenId) private {\n        _allTokensIndex[tokenId] = _allTokens.length;\n        _allTokens.push(tokenId); \n    }\n\n    function _addTokensToOwnerEnumeration(address to, uint256 tokenId) private {\n        _ownedTokensIndex[tokenId] = _ownedTokens[to].length;\n        _ownedTokens[to].push(tokenId);   \n    }\n\n    function tokenByIndex(uint256 index) public override view returns(uint256) {\n        require(index < totalSupply(), 'global index is out of bounds!');\n        return _allTokens[index];\n    }\n\n    function tokenOfOwnerByIndex(address owner, uint index) public override view returns(uint256) {\n        require(index < balanceOf(owner),'owner index is out of bounds!');\n        return _ownedTokens[owner][index];  \n    }\n\n    function totalSupply() public override view returns(uint256) {\n        return _allTokens.length;\n    }\n\n}",
  "sourcePath": "D:\\NFT\\Final\\nft-marketplace-solution\\src\\contracts\\ERC721Enumerable.sol",
  "compiler": {
    "name": "solc",
    "version": "0.8.16+commit.07a7930e.Emscripten.clang"
  },
  "schemaVersion": "3.4.9",
  "updatedAt": "2022-08-22T09:55:23.805Z",
  "devdoc": {
    "kind": "dev",
    "methods": {},
    "version": 1
  },
  "userdoc": {
    "kind": "user",
    "methods": {},
    "version": 1
  }
}