{
  "contractName": "MyNFT",
  "abi": [
    {
      "inputs": [],
      "stateMutability": "nonpayable",
      "type": "constructor"
    },
    {
      "anonymous": false,
      "inputs": [
        {
          "indexed": true,
          "internalType": "address",
          "name": "_from",
          "type": "address"
        },
        {
          "indexed": true,
          "internalType": "address",
          "name": "_to",
          "type": "address"
        },
        {
          "indexed": true,
          "internalType": "uint256",
          "name": "_tokenId",
          "type": "uint256"
        }
      ],
      "name": "Transfer",
      "type": "event"
    },
    {
      "inputs": [
        {
          "internalType": "string",
          "name": "",
          "type": "string"
        }
      ],
      "name": "_nftExists",
      "outputs": [
        {
          "internalType": "bool",
          "name": "",
          "type": "bool"
        }
      ],
      "stateMutability": "view",
      "type": "function",
      "constant": true
    },
    {
      "inputs": [
        {
          "internalType": "string",
          "name": "",
          "type": "string"
        }
      ],
      "name": "_nftId",
      "outputs": [
        {
          "internalType": "uint256",
          "name": "",
          "type": "uint256"
        }
      ],
      "stateMutability": "view",
      "type": "function",
      "constant": true
    },
    {
      "inputs": [
        {
          "internalType": "address",
          "name": "_owner",
          "type": "address"
        }
      ],
      "name": "balanceOf",
      "outputs": [
        {
          "internalType": "uint256",
          "name": "",
          "type": "uint256"
        }
      ],
      "stateMutability": "view",
      "type": "function",
      "constant": true
    },
    {
      "inputs": [],
      "name": "name",
      "outputs": [
        {
          "internalType": "string",
          "name": "",
          "type": "string"
        }
      ],
      "stateMutability": "view",
      "type": "function",
      "constant": true
    },
    {
      "inputs": [
        {
          "internalType": "uint256",
          "name": "",
          "type": "uint256"
        }
      ],
      "name": "nfts",
      "outputs": [
        {
          "internalType": "string",
          "name": "",
          "type": "string"
        }
      ],
      "stateMutability": "view",
      "type": "function",
      "constant": true
    },
    {
      "inputs": [
        {
          "internalType": "uint256",
          "name": "_tokenId",
          "type": "uint256"
        }
      ],
      "name": "ownerOf",
      "outputs": [
        {
          "internalType": "address",
          "name": "",
          "type": "address"
        }
      ],
      "stateMutability": "view",
      "type": "function",
      "constant": true
    },
    {
      "inputs": [
        {
          "internalType": "bytes4",
          "name": "interfaceID",
          "type": "bytes4"
        }
      ],
      "name": "supportsInterface",
      "outputs": [
        {
          "internalType": "bool",
          "name": "",
          "type": "bool"
        }
      ],
      "stateMutability": "view",
      "type": "function",
      "constant": true
    },
    {
      "inputs": [],
      "name": "symbol",
      "outputs": [
        {
          "internalType": "string",
          "name": "",
          "type": "string"
        }
      ],
      "stateMutability": "view",
      "type": "function",
      "constant": true
    },
    {
      "inputs": [
        {
          "internalType": "uint256",
          "name": "index",
          "type": "uint256"
        }
      ],
      "name": "tokenByIndex",
      "outputs": [
        {
          "internalType": "uint256",
          "name": "",
          "type": "uint256"
        }
      ],
      "stateMutability": "view",
      "type": "function",
      "constant": true
    },
    {
      "inputs": [
        {
          "internalType": "address",
          "name": "owner",
          "type": "address"
        },
        {
          "internalType": "uint256",
          "name": "index",
          "type": "uint256"
        }
      ],
      "name": "tokenOfOwnerByIndex",
      "outputs": [
        {
          "internalType": "uint256",
          "name": "",
          "type": "uint256"
        }
      ],
      "stateMutability": "view",
      "type": "function",
      "constant": true
    },
    {
      "inputs": [],
      "name": "totalSupply",
      "outputs": [
        {
          "internalType": "uint256",
          "name": "",
          "type": "uint256"
        }
      ],
      "stateMutability": "view",
      "type": "function",
      "constant": true
    },
    {
      "inputs": [
        {
          "internalType": "address",
          "name": "_from",
          "type": "address"
        },
        {
          "internalType": "address",
          "name": "_to",
          "type": "address"
        },
        {
          "internalType": "uint256",
          "name": "_tokenId",
          "type": "uint256"
        }
      ],
      "name": "transferFrom",
      "outputs": [],
      "stateMutability": "nonpayable",
      "type": "function"
    },
    {
      "inputs": [
        {
          "internalType": "string",
          "name": "_nft",
          "type": "string"
        }
      ],
      "name": "mint",
      "outputs": [],
      "stateMutability": "nonpayable",
      "type": "function"
    },
    {
      "inputs": [
        {
          "internalType": "string",
          "name": "_nft",
          "type": "string"
        }
      ],
      "name": "getTokenID",
      "outputs": [
        {
          "internalType": "uint256",
          "name": "",
          "type": "uint256"
        }
      ],
      "stateMutability": "view",
      "type": "function",
      "constant": true
    },
    {
      "inputs": [],
      "name": "getAllTokens",
      "outputs": [
        {
          "internalType": "string[]",
          "name": "",
          "type": "string[]"
        }
      ],
      "stateMutability": "view",
      "type": "function",
      "constant": true
    }
  ],
  "bytecode": "0x60806040523480156200001157600080fd5b506040518060400160405280600881526020017f4d79546f6b656e730000000000000000000000000000000000000000000000008152506040518060400160405280600681526020017f4e696c65736800000000000000000000000000000000000000000000000000008152508181620000b17f01ffc9a7a5cef8baa21ed3c5c0d7e23accb804b619e9333b597f47a0d84076e26200021c60201b60201c565b620001047f13b182f4c0e5b2efbac0efe6cf6d756c8b89f4b79c5707a043ed9ea740574ee97f7feaf19471f34a12a7eaf32d5f3090aa2260ea8624dc8a138e74e0bf0f623076186200021c60201b60201c565b81600190816200011591906200056d565b5080600290816200012791906200056d565b5050506200019f7f22c82707ba960a14c7592ffb6b8cfaa073fed0048a84cc7fa41f6b5bd8e7f2e47f3a6eb71757dfc6e784c1459d26270140c2c147d95ca985c80026fc5301c3eca17f8a7e378434598edc36d108689a030cbc9d7d465de4f74c71bae1028eed6a881b18186200021c60201b60201c565b620002147f8230223f691b981717299fae9549350a0d894555723531f02108b1f522c1a7977f6da5e1284143cdd2d15038a59bde3be031250f00291d64494c12d967b3a4e0c37fc53637662700e6c65104059db8bba34439e0c32483ab7c34e3ccae52c739549518186200021c60201b60201c565b5050620006d7565b63ffffffff60e01b817bffffffffffffffffffffffffffffffffffffffffffffffffffffffff19160362000287576040517f08c379a00000000000000000000000000000000000000000000000000000000081526004016200027e90620006b5565b60405180910390fd5b6001600080837bffffffffffffffffffffffffffffffffffffffffffffffffffffffff19167bffffffffffffffffffffffffffffffffffffffffffffffffffffffff1916815260200190815260200160002060006101000a81548160ff02191690831515021790555050565b600081519050919050565b7f4e487b7100000000000000000000000000000000000000000000000000000000600052604160045260246000fd5b7f4e487b7100000000000000000000000000000000000000000000000000000000600052602260045260246000fd5b600060028204905060018216806200037557607f821691505b6020821081036200038b576200038a6200032d565b5b50919050565b60008190508160005260206000209050919050565b60006020601f8301049050919050565b600082821b905092915050565b600060088302620003f57fffffffffffffffffffffffffffffffffffffffffffffffffffffffffffffffff82620003b6565b620004018683620003b6565b95508019841693508086168417925050509392505050565b6000819050919050565b6000819050919050565b60006200044e62000448620004428462000419565b62000423565b62000419565b9050919050565b6000819050919050565b6200046a836200042d565b62000482620004798262000455565b848454620003c3565b825550505050565b600090565b620004996200048a565b620004a68184846200045f565b505050565b5b81811015620004ce57620004c26000826200048f565b600181019050620004ac565b5050565b601f8211156200051d57620004e78162000391565b620004f284620003a6565b8101602085101562000502578190505b6200051a6200051185620003a6565b830182620004ab565b50505b505050565b600082821c905092915050565b6000620005426000198460080262000522565b1980831691505092915050565b60006200055d83836200052f565b9150826002028217905092915050565b6200057882620002f3565b67ffffffffffffffff811115620005945762000593620002fe565b5b620005a082546200035c565b620005ad828285620004d2565b600060209050601f831160018114620005e55760008415620005d0578287015190505b620005dc85826200054f565b8655506200064c565b601f198416620005f58662000391565b60005b828110156200061f57848901518255600182019150602085019450602081019050620005f8565b868310156200063f57848901516200063b601f8916826200052f565b8355505b6001600288020188555050505b505050505050565b600082825260208201905092915050565b7f496e76616c696420696e74657266616365207265717565737400000000000000600082015250565b60006200069d60198362000654565b9150620006aa8262000665565b602082019050919050565b60006020820190508181036000830152620006d0816200068e565b9050919050565b61206d80620006e76000396000f3fe608060405234801561001057600080fd5b50600436106100f55760003560e01c806330219d4b1161009757806370a082311161006657806370a08231146102c057806395d89b41146102f0578063d85d3d271461030e578063e706a6391461032a576100f5565b806330219d4b146102005780634a72c3de146102305780634f6ccce7146102605780636352211e14610290576100f5565b806323b872dd116100d357806323b872dd14610166578063265aa621146101825780632a5c792a146101b25780632f745c59146101d0576100f5565b806301ffc9a7146100fa57806306fdde031461012a57806318160ddd14610148575b600080fd5b610114600480360381019061010f91906111da565b61035a565b6040516101219190611222565b60405180910390f35b6101326103c1565b60405161013f91906112cd565b60405180910390f35b610150610453565b60405161015d9190611308565b60405180910390f35b610180600480360381019061017b91906113ad565b610460565b005b61019c60048036038101906101979190611400565b610483565b6040516101a991906112cd565b60405180910390f35b6101ba61052f565b6040516101c79190611539565b60405180910390f35b6101ea60048036038101906101e5919061155b565b610608565b6040516101f79190611308565b60405180910390f35b61021a600480360381019061021591906116d0565b6106b8565b6040516102279190611222565b60405180910390f35b61024a600480360381019061024591906116d0565b6106ee565b6040516102579190611308565b60405180910390f35b61027a60048036038101906102759190611400565b61071c565b6040516102879190611308565b60405180910390f35b6102aa60048036038101906102a59190611400565b61078d565b6040516102b79190611728565b60405180910390f35b6102da60048036038101906102d59190611743565b61083e565b6040516102e79190611308565b60405180910390f35b6102f86108f5565b60405161030591906112cd565b60405180910390f35b610328600480360381019061032391906116d0565b610987565b005b610344600480360381019061033f91906116d0565b610aa6565b6040516103519190611308565b60405180910390f35b6000806000837bffffffffffffffffffffffffffffffffffffffffffffffffffffffff19167bffffffffffffffffffffffffffffffffffffffffffffffffffffffff1916815260200190815260200160002060009054906101000a900460ff169050919050565b6060600180546103d09061179f565b80601f01602080910402602001604051908101604052809291908181526020018280546103fc9061179f565b80156104495780601f1061041e57610100808354040283529160200191610449565b820191906000526020600020905b81548152906001019060200180831161042c57829003601f168201915b5050505050905090565b6000600580549050905090565b61046a3382610b39565b61047357600080fd5b61047e838383610bc8565b505050565b6009818154811061049357600080fd5b9060005260206000200160009150905080546104ae9061179f565b80601f01602080910402602001604051908101604052809291908181526020018280546104da9061179f565b80156105275780601f106104fc57610100808354040283529160200191610527565b820191906000526020600020905b81548152906001019060200180831161050a57829003601f168201915b505050505081565b60606009805480602002602001604051908101604052809291908181526020016000905b828210156105ff5783829060005260206000200180546105729061179f565b80601f016020809104026020016040519081016040528092919081815260200182805461059e9061179f565b80156105eb5780601f106105c0576101008083540402835291602001916105eb565b820191906000526020600020905b8154815290600101906020018083116105ce57829003601f168201915b505050505081526020019060010190610553565b50505050905090565b60006106138361083e565b8210610654576040517f08c379a000000000000000000000000000000000000000000000000000000000815260040161064b9061181c565b60405180910390fd5b600760008473ffffffffffffffffffffffffffffffffffffffff1673ffffffffffffffffffffffffffffffffffffffff16815260200190815260200160002082815481106106a5576106a461183c565b5b9060005260206000200154905092915050565b600a818051602081018201805184825260208301602085012081835280955050505050506000915054906101000a900460ff1681565b600b818051602081018201805184825260208301602085012081835280955050505050506000915090505481565b6000610726610453565b8210610767576040517f08c379a000000000000000000000000000000000000000000000000000000000815260040161075e906118b7565b60405180910390fd5b6005828154811061077b5761077a61183c565b5b90600052602060002001549050919050565b6000806003600084815260200190815260200160002060009054906101000a900473ffffffffffffffffffffffffffffffffffffffff169050600073ffffffffffffffffffffffffffffffffffffffff168173ffffffffffffffffffffffffffffffffffffffff1603610835576040517f08c379a000000000000000000000000000000000000000000000000000000000815260040161082c90611949565b60405180910390fd5b80915050919050565b60008073ffffffffffffffffffffffffffffffffffffffff168273ffffffffffffffffffffffffffffffffffffffff16036108ae576040517f08c379a00000000000000000000000000000000000000000000000000000000081526004016108a590611949565b60405180910390fd5b600460008373ffffffffffffffffffffffffffffffffffffffff1673ffffffffffffffffffffffffffffffffffffffff168152602001908152602001600020549050919050565b6060600280546109049061179f565b80601f01602080910402602001604051908101604052809291908181526020018280546109309061179f565b801561097d5780601f106109525761010080835404028352916020019161097d565b820191906000526020600020905b81548152906001019060200180831161096057829003601f168201915b5050505050905090565b600a8160405161099791906119a5565b908152602001604051809103902060009054906101000a900460ff16156109f3576040517f08c379a00000000000000000000000000000000000000000000000000000000081526004016109ea90611a08565b60405180910390fd5b600981908060018154018082558091505060019003906000526020600020016000909190919091509081610a279190611bd4565b5060006001600980549050610a3c9190611cd5565b9050610a483382610e0d565b80600b83604051610a5991906119a5565b9081526020016040518091039020819055506001600a83604051610a7d91906119a5565b908152602001604051809103902060006101000a81548160ff0219169083151502179055505050565b6000600a82604051610ab891906119a5565b908152602001604051809103902060009054906101000a900460ff16610b13576040517f08c379a0000000000000000000000000000000000000000000000000000000008152600401610b0a90611d55565b60405180910390fd5b600b82604051610b2391906119a5565b9081526020016040518091039020549050919050565b6000610b4482610e2e565b610b83576040517f08c379a0000000000000000000000000000000000000000000000000000000008152600401610b7a90611dc1565b60405180910390fd5b6000610b8e8361078d565b90508073ffffffffffffffffffffffffffffffffffffffff168473ffffffffffffffffffffffffffffffffffffffff161491505092915050565b600073ffffffffffffffffffffffffffffffffffffffff168273ffffffffffffffffffffffffffffffffffffffff1603610c37576040517f08c379a0000000000000000000000000000000000000000000000000000000008152600401610c2e90611e53565b60405180910390fd5b8273ffffffffffffffffffffffffffffffffffffffff16610c578261078d565b73ffffffffffffffffffffffffffffffffffffffff1614610cad576040517f08c379a0000000000000000000000000000000000000000000000000000000008152600401610ca490611ee5565b60405180910390fd5b6001600460008573ffffffffffffffffffffffffffffffffffffffff1673ffffffffffffffffffffffffffffffffffffffff1681526020019081526020016000206000828254610cfd9190611cd5565b925050819055506001600460008473ffffffffffffffffffffffffffffffffffffffff1673ffffffffffffffffffffffffffffffffffffffff1681526020019081526020016000206000828254610d549190611f05565b92505081905550816003600083815260200190815260200160002060006101000a81548173ffffffffffffffffffffffffffffffffffffffff021916908373ffffffffffffffffffffffffffffffffffffffff160217905550808273ffffffffffffffffffffffffffffffffffffffff168473ffffffffffffffffffffffffffffffffffffffff167fddf252ad1be2c89b69c2b068fc378daa952ba7f163c4a11628f55a4df523b3ef60405160405180910390a4505050565b610e178282610ea0565b610e2081611061565b610e2a82826110aa565b5050565b6000806003600084815260200190815260200160002060009054906101000a900473ffffffffffffffffffffffffffffffffffffffff169050600073ffffffffffffffffffffffffffffffffffffffff168173ffffffffffffffffffffffffffffffffffffffff161415915050919050565b600073ffffffffffffffffffffffffffffffffffffffff168273ffffffffffffffffffffffffffffffffffffffff1603610f0f576040517f08c379a0000000000000000000000000000000000000000000000000000000008152600401610f0690611fab565b60405180910390fd5b610f1881610e2e565b15610f58576040517f08c379a0000000000000000000000000000000000000000000000000000000008152600401610f4f90612017565b60405180910390fd5b816003600083815260200190815260200160002060006101000a81548173ffffffffffffffffffffffffffffffffffffffff021916908373ffffffffffffffffffffffffffffffffffffffff1602179055506001600460008473ffffffffffffffffffffffffffffffffffffffff1673ffffffffffffffffffffffffffffffffffffffff1681526020019081526020016000206000828254610ffa9190611f05565b92505081905550808273ffffffffffffffffffffffffffffffffffffffff16600073ffffffffffffffffffffffffffffffffffffffff167fddf252ad1be2c89b69c2b068fc378daa952ba7f163c4a11628f55a4df523b3ef60405160405180910390a45050565b6005805490506006600083815260200190815260200160002081905550600581908060018154018082558091505060019003906000526020600020016000909190919091505550565b600760008373ffffffffffffffffffffffffffffffffffffffff1673ffffffffffffffffffffffffffffffffffffffff168152602001908152602001600020805490506008600083815260200190815260200160002081905550600760008373ffffffffffffffffffffffffffffffffffffffff1673ffffffffffffffffffffffffffffffffffffffff1681526020019081526020016000208190806001815401808255809150506001900390600052602060002001600090919091909150555050565b6000604051905090565b600080fd5b600080fd5b60007fffffffff0000000000000000000000000000000000000000000000000000000082169050919050565b6111b781611182565b81146111c257600080fd5b50565b6000813590506111d4816111ae565b92915050565b6000602082840312156111f0576111ef611178565b5b60006111fe848285016111c5565b91505092915050565b60008115159050919050565b61121c81611207565b82525050565b60006020820190506112376000830184611213565b92915050565b600081519050919050565b600082825260208201905092915050565b60005b8381101561127757808201518184015260208101905061125c565b60008484015250505050565b6000601f19601f8301169050919050565b600061129f8261123d565b6112a98185611248565b93506112b9818560208601611259565b6112c281611283565b840191505092915050565b600060208201905081810360008301526112e78184611294565b905092915050565b6000819050919050565b611302816112ef565b82525050565b600060208201905061131d60008301846112f9565b92915050565b600073ffffffffffffffffffffffffffffffffffffffff82169050919050565b600061134e82611323565b9050919050565b61135e81611343565b811461136957600080fd5b50565b60008135905061137b81611355565b92915050565b61138a816112ef565b811461139557600080fd5b50565b6000813590506113a781611381565b92915050565b6000806000606084860312156113c6576113c5611178565b5b60006113d48682870161136c565b93505060206113e58682870161136c565b92505060406113f686828701611398565b9150509250925092565b60006020828403121561141657611415611178565b5b600061142484828501611398565b91505092915050565b600081519050919050565b600082825260208201905092915050565b6000819050602082019050919050565b600082825260208201905092915050565b60006114758261123d565b61147f8185611459565b935061148f818560208601611259565b61149881611283565b840191505092915050565b60006114af838361146a565b905092915050565b6000602082019050919050565b60006114cf8261142d565b6114d98185611438565b9350836020820285016114eb85611449565b8060005b85811015611527578484038952815161150885826114a3565b9450611513836114b7565b925060208a019950506001810190506114ef565b50829750879550505050505092915050565b6000602082019050818103600083015261155381846114c4565b905092915050565b6000806040838503121561157257611571611178565b5b60006115808582860161136c565b925050602061159185828601611398565b9150509250929050565b600080fd5b600080fd5b7f4e487b7100000000000000000000000000000000000000000000000000000000600052604160045260246000fd5b6115dd82611283565b810181811067ffffffffffffffff821117156115fc576115fb6115a5565b5b80604052505050565b600061160f61116e565b905061161b82826115d4565b919050565b600067ffffffffffffffff82111561163b5761163a6115a5565b5b61164482611283565b9050602081019050919050565b82818337600083830152505050565b600061167361166e84611620565b611605565b90508281526020810184848401111561168f5761168e6115a0565b5b61169a848285611651565b509392505050565b600082601f8301126116b7576116b661159b565b5b81356116c7848260208601611660565b91505092915050565b6000602082840312156116e6576116e5611178565b5b600082013567ffffffffffffffff8111156117045761170361117d565b5b611710848285016116a2565b91505092915050565b61172281611343565b82525050565b600060208201905061173d6000830184611719565b92915050565b60006020828403121561175957611758611178565b5b60006117678482850161136c565b91505092915050565b7f4e487b7100000000000000000000000000000000000000000000000000000000600052602260045260246000fd5b600060028204905060018216806117b757607f821691505b6020821081036117ca576117c9611770565b5b50919050565b7f6f776e657220696e646578206973206f7574206f6620626f756e647321000000600082015250565b6000611806601d83611248565b9150611811826117d0565b602082019050919050565b60006020820190508181036000830152611835816117f9565b9050919050565b7f4e487b7100000000000000000000000000000000000000000000000000000000600052603260045260246000fd5b7f676c6f62616c20696e646578206973206f7574206f6620626f756e6473210000600082015250565b60006118a1601e83611248565b91506118ac8261186b565b602082019050919050565b600060208201905081810360008301526118d081611894565b9050919050565b7f6f776e657220717565727920666f72206e6f6e2d6578697374656e7420746f6b60008201527f656e000000000000000000000000000000000000000000000000000000000000602082015250565b6000611933602283611248565b915061193e826118d7565b604082019050919050565b6000602082019050818103600083015261196281611926565b9050919050565b600081905092915050565b600061197f8261123d565b6119898185611969565b9350611999818560208601611259565b80840191505092915050565b60006119b18284611974565b915081905092915050565b7f4572726f72202d20546f6b656e20616c72656164792065786973747300000000600082015250565b60006119f2601c83611248565b91506119fd826119bc565b602082019050919050565b60006020820190508181036000830152611a21816119e5565b9050919050565b60008190508160005260206000209050919050565b60006020601f8301049050919050565b600082821b905092915050565b600060088302611a8a7fffffffffffffffffffffffffffffffffffffffffffffffffffffffffffffffff82611a4d565b611a948683611a4d565b95508019841693508086168417925050509392505050565b6000819050919050565b6000611ad1611acc611ac7846112ef565b611aac565b6112ef565b9050919050565b6000819050919050565b611aeb83611ab6565b611aff611af782611ad8565b848454611a5a565b825550505050565b600090565b611b14611b07565b611b1f818484611ae2565b505050565b5b81811015611b4357611b38600082611b0c565b600181019050611b25565b5050565b601f821115611b8857611b5981611a28565b611b6284611a3d565b81016020851015611b71578190505b611b85611b7d85611a3d565b830182611b24565b50505b505050565b600082821c905092915050565b6000611bab60001984600802611b8d565b1980831691505092915050565b6000611bc48383611b9a565b9150826002028217905092915050565b611bdd8261123d565b67ffffffffffffffff811115611bf657611bf56115a5565b5b611c00825461179f565b611c0b828285611b47565b600060209050601f831160018114611c3e5760008415611c2c578287015190505b611c368582611bb8565b865550611c9e565b601f198416611c4c86611a28565b60005b82811015611c7457848901518255600182019150602085019450602081019050611c4f565b86831015611c915784890151611c8d601f891682611b9a565b8355505b6001600288020188555050505b505050505050565b7f4e487b7100000000000000000000000000000000000000000000000000000000600052601160045260246000fd5b6000611ce0826112ef565b9150611ceb836112ef565b9250828203905081811115611d0357611d02611ca6565b5b92915050565b7f4572726f72202d20546f6b656e20646f6573206e6f7420657869737473000000600082015250565b6000611d3f601d83611248565b9150611d4a82611d09565b602082019050919050565b60006020820190508181036000830152611d6e81611d32565b9050919050565b7f746f6b656e20646f6573206e6f74206578697374000000000000000000000000600082015250565b6000611dab601483611248565b9150611db682611d75565b602082019050919050565b60006020820190508181036000830152611dda81611d9e565b9050919050565b7f4572726f72202d20455243373231205472616e7366657220746f20746865207a60008201527f65726f2061646472657373000000000000000000000000000000000000000000602082015250565b6000611e3d602b83611248565b9150611e4882611de1565b604082019050919050565b60006020820190508181036000830152611e6c81611e30565b9050919050565b7f547279696e6720746f207472616e73666572206120746f6b656e20746865206160008201527f64647265737320646f6573206e6f74206f776e21000000000000000000000000602082015250565b6000611ecf603483611248565b9150611eda82611e73565b604082019050919050565b60006020820190508181036000830152611efe81611ec2565b9050919050565b6000611f10826112ef565b9150611f1b836112ef565b9250828201905080821115611f3357611f32611ca6565b5b92915050565b7f4552433732313a206d696e74696e6720746f20746865207a65726f206164647260008201527f6573000000000000000000000000000000000000000000000000000000000000602082015250565b6000611f95602283611248565b9150611fa082611f39565b604082019050919050565b60006020820190508181036000830152611fc481611f88565b9050919050565b7f4552433732313a20746f6b656e20616c7265616479206d696e74656400000000600082015250565b6000612001601c83611248565b915061200c82611fcb565b602082019050919050565b6000602082019050818103600083015261203081611ff4565b905091905056fea26469706673582212201ac4aeed2e6af7c0efb833b05563bc90935af04fd2619ecd2ebdb2216ecf855d64736f6c63430008100033",
  "immutableReferences": {},
  "source": "// SPDX-License-Identifier: MIT\npragma solidity ^0.8.0;\n\nimport './ERC721Connector.sol';\n\ncontract MyNFT is ERC721Connector {\n\n    string [] public nfts; // Making an array of public string to store hyperlinks of image source\n\n    mapping(string => bool) public _nftExists; // mapping them to check whether they exisit or not\n\n    mapping(string => uint256) public _nftId;\n    \n    function mint(string memory _nft) public {\n\n        require(!_nftExists[_nft],\n        'Error - Token already exists');\n        nfts.push(_nft);\n        uint _id = nfts.length - 1;\n\n        _mint(msg.sender, _id);\n        _nftId[_nft] = _id;\n        _nftExists[_nft] = true;\n\n    }\n\n    function getTokenID(string memory _nft) external view returns(uint256){ \n        require(_nftExists[_nft],\n        'Error - Token does not exists');\n        return _nftId[_nft];\n    }\n\n    function getAllTokens() external view returns(string[] memory ){\n        return nfts;\n    }\n\n    constructor() ERC721Connector('MyTokens','Nilesh')\n {}\n\n}\n\n\n",
  "sourcePath": "D:\\NFT\\Final\\nft-marketplace-solution\\src\\contracts\\MyNFT.sol",
  "compiler": {
    "name": "solc",
    "version": "0.8.16+commit.07a7930e.Emscripten.clang"
  },
  "schemaVersion": "3.4.9",
  "updatedAt": "2022-08-22T09:55:28.592Z",
  "networkType": "ethereum",
  "devdoc": {
    "kind": "dev",
    "methods": {},
    "version": 1
  },
  "userdoc": {
    "kind": "user",
    "methods": {},
    "version": 1
  }
}